{
  "abi": [
    {
      "inputs": [],
      "stateMutability": "nonpayable",
      "type": "constructor"
    },
    {
      "anonymous": false,
      "inputs": [
        {
          "indexed": false,
          "internalType": "uint16",
          "name": "",
          "type": "uint16"
        }
      ],
      "name": "supplyIncrease",
      "type": "event"
    },
    {
      "inputs": [],
      "name": "GetSupply",
      "outputs": [
        {
          "internalType": "uint16",
          "name": "value",
          "type": "uint16"
        }
      ],
      "stateMutability": "view",
      "type": "function"
    },
    {
      "inputs": [
        {
          "internalType": "uint256",
          "name": "",
          "type": "uint256"
        }
      ],
      "name": "balance",
      "outputs": [
        {
          "internalType": "uint256",
          "name": "",
          "type": "uint256"
        }
      ],
      "stateMutability": "view",
      "type": "function"
    },
    {
      "inputs": [
        {
          "internalType": "address",
          "name": "",
          "type": "address"
        }
      ],
      "name": "balanceOf",
      "outputs": [
        {
          "internalType": "uint256",
          "name": "",
          "type": "uint256"
        }
      ],
      "stateMutability": "view",
      "type": "function"
    },
    {
      "inputs": [
        {
          "internalType": "uint16",
          "name": "newSupply",
          "type": "uint16"
        }
      ],
      "name": "increaseSupply",
      "outputs": [],
      "stateMutability": "nonpayable",
      "type": "function"
    },
    {
      "inputs": [],
      "name": "owner",
      "outputs": [
        {
          "internalType": "address",
          "name": "",
          "type": "address"
        }
      ],
      "stateMutability": "view",
      "type": "function"
    },
    {
      "inputs": [],
      "name": "totalSupply",
      "outputs": [
        {
          "internalType": "uint16",
          "name": "",
          "type": "uint16"
        }
      ],
      "stateMutability": "view",
      "type": "function"
    }
  ],
  "bytecode": {
    "object": "0x608060405234801561001057600080fd5b5060008054620100003390810262010000600160b01b031983168117845590835260016020526040832061ffff91821691909216179055805461ffff1916612710179055610235806100636000396000f3fe608060405234801561001057600080fd5b50600436106100625760003560e01c806318160ddd1461006757806347bb89f01461008d57806370a08231146100bd5780637f908bf2146100dd5780638da5cb5b146100e9578063c2bded131461011a575b600080fd5b6000546100759061ffff1681565b60405161ffff90911681526020015b60405180910390f35b6100af61009b366004610192565b503360009081526001602052604090205490565b604051908152602001610084565b6100af6100cb3660046101ab565b60016020526000908152604090205481565b60005461ffff16610075565b600054610102906201000090046001600160a01b031681565b6040516001600160a01b039091168152602001610084565b61012d6101283660046101db565b61012f565b005b6000546201000090046001600160a01b0316330361018f576000805461ffff191661ffff83169081179091556040519081527f4ed9681036631baa0022c5f1d9019523fe093136221cbf014c34e6ef3267d1019060200160405180910390a15b50565b6000602082840312156101a457600080fd5b5035919050565b6000602082840312156101bd57600080fd5b81356001600160a01b03811681146101d457600080fd5b9392505050565b6000602082840312156101ed57600080fd5b813561ffff811681146101d457600080fdfea2646970667358221220d7d93b784ceef72d1af38dc869a50782c9e014118af3d4318d8ac072426300ac64736f6c63430008110033",
    "linkReferences": {}
  },
  "methodIdentifiers": {
    "GetSupply()": "7f908bf2",
    "balance(uint256)": "47bb89f0",
    "balanceOf(address)": "70a08231",
    "increaseSupply(uint16)": "c2bded13",
    "owner()": "8da5cb5b",
    "totalSupply()": "18160ddd"
  },
  "id": 2
}