{
  "abi": [
    {
      "inputs": [
        {
          "internalType": "address",
          "name": "_address",
          "type": "address"
        }
      ],
      "name": "callTreasureContract",
      "outputs": [],
      "stateMutability": "nonpayable",
      "type": "function"
    }
  ],
  "bytecode": {
    "object": "0x608060405234801561001057600080fd5b5060fc8061001f6000396000f3fe6080604052348015600f57600080fd5b506004361060285760003560e01c80634091127814602d575b600080fd5b603c60383660046098565b603e565b005b6040516345e6d6b760e01b81523360048201526001600160a01b038216906345e6d6b790602401600060405180830381600087803b158015607e57600080fd5b505af11580156091573d6000803e3d6000fd5b5050505050565b60006020828403121560a957600080fd5b81356001600160a01b038116811460bf57600080fd5b939250505056fea2646970667358221220fcd12ce0d6a40464f9a252612a03098868a823f24bc14a4d0f64fde7f1dc6d4f64736f6c63430008110033",
    "linkReferences": {}
  },
  "methodIdentifiers": {
    "callTreasureContract(address)": "40911278"
  },
  "id": 1
}