{
  "abi": [
    {
      "inputs": [],
      "stateMutability": "nonpayable",
      "type": "constructor"
    },
    {
      "anonymous": false,
      "inputs": [
        {
          "indexed": false,
          "internalType": "uint256",
          "name": "",
          "type": "uint256"
        },
        {
          "indexed": true,
          "internalType": "address",
          "name": "",
          "type": "address"
        }
      ],
      "name": "scoreSet2",
      "type": "event"
    },
    {
      "inputs": [],
      "name": "getScore",
      "outputs": [
        {
          "internalType": "uint256",
          "name": "",
          "type": "uint256"
        }
      ],
      "stateMutability": "view",
      "type": "function"
    },
    {
      "inputs": [
        {
          "internalType": "address",
          "name": "user",
          "type": "address"
        }
      ],
      "name": "getUserScore",
      "outputs": [
        {
          "internalType": "uint256",
          "name": "",
          "type": "uint256"
        }
      ],
      "stateMutability": "view",
      "type": "function"
    },
    {
      "inputs": [],
      "name": "owner",
      "outputs": [
        {
          "internalType": "address",
          "name": "",
          "type": "address"
        }
      ],
      "stateMutability": "view",
      "type": "function"
    },
    {
      "inputs": [],
      "name": "score",
      "outputs": [
        {
          "internalType": "uint256",
          "name": "",
          "type": "uint256"
        }
      ],
      "stateMutability": "view",
      "type": "function"
    },
    {
      "inputs": [
        {
          "internalType": "uint256",
          "name": "newScore",
          "type": "uint256"
        }
      ],
      "name": "setScore",
      "outputs": [],
      "stateMutability": "nonpayable",
      "type": "function"
    }
  ],
  "bytecode": {
    "object": "0x608060405234801561001057600080fd5b50600180546001600160a01b031916331790556101df806100326000396000f3fe608060405234801561001057600080fd5b50600436106100575760003560e01c8063422beeba1461005c5780638da5cb5b14610071578063afd82067146100a1578063b34e0c47146100b3578063efedc669146100dc575b600080fd5b61006f61006a366004610160565b6100e5565b005b600154610084906001600160a01b031681565b6040516001600160a01b0390911681526020015b60405180910390f35b6000545b604051908152602001610098565b6100a56100c1366004610179565b6001600160a01b031660009081526002602052604090205490565b6100a560005481565b6001546001600160a01b0316330361015d576000818155600e80546001600160a01b0319163390811790915580825260026020526040918290206035905590517f6959bfb8776ea9f240909c5377ed667eb08d86ddacbace5d09e766e84465e7fb906101549084815260200190565b60405180910390a25b50565b60006020828403121561017257600080fd5b5035919050565b60006020828403121561018b57600080fd5b81356001600160a01b03811681146101a257600080fd5b939250505056fea2646970667358221220caebe3e6c593d4600979dcff6f94d18c8c05ca6dd45bd40e0f8fc61784752d7164736f6c63430008110033",
    "linkReferences": {}
  },
  "methodIdentifiers": {
    "getScore()": "afd82067",
    "getUserScore(address)": "b34e0c47",
    "owner()": "8da5cb5b",
    "score()": "efedc669",
    "setScore(uint256)": "422beeba"
  },
  "id": 0
}